:020000040800F2
:10000000600600206D0100087501000877010008F6
:10001000790100087B0100087D0100080000000054
:100020000000000000000000000000007F01000848
:10003000810100080000000083010008850100081C
:100040008701000887010008870100088701000870
:100050008701000887010008870100088701000860
:100060008701000887010008870100088701000850
:100070008701000887010008870100088701000840
:100080008701000887010008870100088701000830
:100090008701000887010008870100088701000820
:1000A0008701000887010008870100088701000810
:1000B0008701000887010008870100088701000800
:1000C00087010008870100088701000887010008F0
:1000D00087010008870100088701000887010008E0
:1000E00087010008870100088701000800F002F876
:1000F00000F02CF80AA090E8000C82448344AAF196
:100100000107DA4501D100F021F8AFF2090EBAE893
:100110000F0013F0010F18BFFB1A43F0010318473B
:10012000AC050000BC0500000023002400250026CB
:10013000103A28BF78C1FBD8520728BF30C148BF4A
:100140000B6070471FB51FBD10B510BD00F031F832
:100150001146FFF7F7FF00F093FA00F04FF803B4F1
:10016000FFF7F2FF03BC00F057F800000948804792
:1001700009480047FEE7FEE7FEE7FEE7FEE7FEE789
:10018000FEE7FEE7FEE7FEE704480549054A064BA1
:1001900070470000F9050008ED000008600000202D
:1001A0006006002060020020600200207047704757
:1001B0007047754600F02CF8AE4605006946534678
:1001C00020F00700854618B020B5FFF7DDFFBDE839
:1001D00020404FF000064FF000074FF000084FF0AE
:1001E000000BAC46ACE8C009ACE8C009ACE8C009FB
:1001F000ACE8C00921F007018D46704710B50446F0
:10020000AFF300802046BDE81040FFF7A8BF000014
:10021000004870470000002001491820ABBEFEE7EF
:10022000260002007047000080B53F20002100F04A
:100230003DF8C0B280BD0000F0B581B007463F2058
:10024000042100F033F804463F20062100F02EF888
:1002500005463F20022100F029F806463F2000F025
:100260003DF8412F06D0422F14BF44F2455044F2CE
:10027000422001E044F241103F210222002300F01D
:1002800055F830463F210222022300F04FF8204665
:100290003F210222042300F049F828463F21022290
:1002A000062300F043F801B0F0BD000041EA8020D1
:1002B0004FF00061405880B27047000042F20400E5
:1002C00040F22311C4F20200C4F26751016048F603
:1002D000AB11CCF6EF51016070470000B0B542F2AF
:1002E0001005C4F2020529680446090648BFFFF755
:1002F000E5FF286840F002002860A00200F10060DD
:100300006860286840F04000286000BF55F8040C81
:10031000C007FBD155F8040C40F0200045F8040C50
:10032000286820F001002860B0BD00004FF0000CEC
:10033000BCEB520F42F2100CC4F2020C12D043EA92
:100340008121520801F10061023800BFDCF8003061
:10035000013A43F00103CCF8003030F8023F21F8B5
:10036000023BF3D15CF8040CC007FBD15CF8040C31
:1003700040F020004CF8040CDCF8000020F00100F4
:10038000CCF800007047000080B5022827D0012873
:100390000BD0002818BF80BD07294FEA810038D84C
:1003A0004FF00F0C40F600034CE007294FEA8100A4
:1003B00043D840F60003C4F201034FF00F0CD3F80A
:1003C00000E40CFA00F12EEA0101C3F80014D3F89E
:1003D000001402FA00F00843C3F8000480BD40F6A0
:1003E0000440C4F2010007294FEA810139D84FF0D7
:1003F0000F0CD0F8FCE30CFA01F32EEA0303C0F86B
:10040000FC33D0F8FC3302FA01F11943C0F8FC13B5
:1004100080BD40F60003C4F2010320384FF00F0CFA
:10042000D3F804E00CFA00F12EEA01015960596892
:1004300002FA00F00843586080BD20384FF00F0CDE
:1004400040F60443C4F20103D3F800E00CFA00F1D3
:100450002EEA01011960196802FA00F008431860D9
:1004600080BD20394FF00F0CD0F800E40CFA01F3F6
:100470002EEA0303C0F80034D0F8003402FA01F188
:100480001943C0F8001480BD1F290ED802280DD0D2
:1004900001281AD048B941F21400C4F202000268DF
:1004A000012303FA01F10A421DD0704741F2140002
:1004B000C4F202004268012303FA01F10A4218BFA4
:1004C0007047426811434160704741F21400C4F222
:1004D00002008268012303FA01F10A42E5D1826831
:1004E000114381607047026811430160704700004A
:1004F00041F20400C4F2020050F8041C41F48031BF
:1005000040F8041C50F8041C8903FBD550F8041C67
:1005100021F4802140F8041C016821F002010160EF
:10052000016841F00101016001680160704700004D
:1005300080B500F001F880BD82B041F204000021D6
:10054000C4F202000191009150F8041C41F4803182
:1005500040F8041C50F8041C01F40031009101998A
:1005600001310191009919B90199B1F5A06FF1D14B
:1005700050F8041C890354BF002101210091009907
:10058000012936D142F20001C4F202010A6842F0A8
:1005900010020A600A6822F003020A600A6842F048
:1005A00002020A600168016001680160016841F4AB
:1005B00080610160016821F47C110160016841F4EF
:1005C000E811016050F8041C41F0807140F8041CEF
:1005D00050F8041C8901FBD5016821F0030101607A
:1005E000016841F002010160016801F00C01082975
:1005F000FAD102B07047000080B541F20000C4F2A9
:1006000002000168002241F0010101604168CFF65B
:10061000FF021140416001684FF6FF72CFF6F662AB
:1006200011400160016821F480210160416821F4DA
:10063000FE0141604FF41F018160FFF779FF4EF624
:100640000850CEF200004FF00061016080BD000054
:1006500043F60C00C4F20100462140F8041C0021BE
:100660000160026842F008020260026842F004027F
:100670000260026842F40052026040F80C1C7047AD
:1006800082B0FFF735FF02200E21FFF7FDFE0220AA
:100690000221FFF7F9FE00200421FFF7F5FEFFF726
:1006A0000DFEFFF7D5FF002009210922FFF76CFEA0
:1006B00000200A210422FFF767FE4120FFF7BCFD5E
:1006C000FFF7B2FDADF80600FEE70000DC0600080B
:0C06D00000000020600600002801000867
:04000005080000ED02
:00000001FF
